{
  "_format": "hh-sol-artifact-1",
  "contractName": "NFTBazaar",
  "sourceName": "contracts/NFTBazaar.sol",
  "abi": [
    {
      "inputs": [
        {
          "internalType": "uint256",
          "name": "_feePercent",
          "type": "uint256"
        }
      ],
      "stateMutability": "nonpayable",
      "type": "constructor"
    },
    {
      "inputs": [
        {
          "internalType": "address",
          "name": "sender",
          "type": "address"
        },
        {
          "internalType": "uint256",
          "name": "tokenId",
          "type": "uint256"
        },
        {
          "internalType": "address",
          "name": "owner",
          "type": "address"
        }
      ],
      "name": "ERC721IncorrectOwner",
      "type": "error"
    },
    {
      "inputs": [
        {
          "internalType": "address",
          "name": "operator",
          "type": "address"
        },
        {
          "internalType": "uint256",
          "name": "tokenId",
          "type": "uint256"
        }
      ],
      "name": "ERC721InsufficientApproval",
      "type": "error"
    },
    {
      "inputs": [
        {
          "internalType": "address",
          "name": "approver",
          "type": "address"
        }
      ],
      "name": "ERC721InvalidApprover",
      "type": "error"
    },
    {
      "inputs": [
        {
          "internalType": "address",
          "name": "operator",
          "type": "address"
        }
      ],
      "name": "ERC721InvalidOperator",
      "type": "error"
    },
    {
      "inputs": [
        {
          "internalType": "address",
          "name": "owner",
          "type": "address"
        }
      ],
      "name": "ERC721InvalidOwner",
      "type": "error"
    },
    {
      "inputs": [
        {
          "internalType": "address",
          "name": "receiver",
          "type": "address"
        }
      ],
      "name": "ERC721InvalidReceiver",
      "type": "error"
    },
    {
      "inputs": [
        {
          "internalType": "address",
          "name": "sender",
          "type": "address"
        }
      ],
      "name": "ERC721InvalidSender",
      "type": "error"
    },
    {
      "inputs": [
        {
          "internalType": "uint256",
          "name": "tokenId",
          "type": "uint256"
        }
      ],
      "name": "ERC721NonexistentToken",
      "type": "error"
    },
    {
      "anonymous": false,
      "inputs": [
        {
          "indexed": true,
          "internalType": "address",
          "name": "owner",
          "type": "address"
        },
        {
          "indexed": true,
          "internalType": "address",
          "name": "approved",
          "type": "address"
        },
        {
          "indexed": true,
          "internalType": "uint256",
          "name": "tokenId",
          "type": "uint256"
        }
      ],
      "name": "Approval",
      "type": "event"
    },
    {
      "anonymous": false,
      "inputs": [
        {
          "indexed": true,
          "internalType": "address",
          "name": "owner",
          "type": "address"
        },
        {
          "indexed": true,
          "internalType": "address",
          "name": "operator",
          "type": "address"
        },
        {
          "indexed": false,
          "internalType": "bool",
          "name": "approved",
          "type": "bool"
        }
      ],
      "name": "ApprovalForAll",
      "type": "event"
    },
    {
      "anonymous": false,
      "inputs": [
        {
          "indexed": false,
          "internalType": "uint256",
          "name": "_fromTokenId",
          "type": "uint256"
        },
        {
          "indexed": false,
          "internalType": "uint256",
          "name": "_toTokenId",
          "type": "uint256"
        }
      ],
      "name": "BatchMetadataUpdate",
      "type": "event"
    },
    {
      "anonymous": false,
      "inputs": [
        {
          "indexed": false,
          "internalType": "uint256",
          "name": "itemId",
          "type": "uint256"
        },
        {
          "indexed": false,
          "internalType": "uint256",
          "name": "tokenId",
          "type": "uint256"
        },
        {
          "indexed": false,
          "internalType": "uint256",
          "name": "price",
          "type": "uint256"
        },
        {
          "indexed": true,
          "internalType": "address",
          "name": "seller",
          "type": "address"
        },
        {
          "indexed": true,
          "internalType": "address",
          "name": "buyer",
          "type": "address"
        }
      ],
      "name": "Bought",
      "type": "event"
    },
    {
      "anonymous": false,
      "inputs": [
        {
          "indexed": false,
          "internalType": "uint256",
          "name": "_tokenId",
          "type": "uint256"
        }
      ],
      "name": "MetadataUpdate",
      "type": "event"
    },
    {
      "anonymous": false,
      "inputs": [
        {
          "indexed": false,
          "internalType": "uint256",
          "name": "tokenId",
          "type": "uint256"
        },
        {
          "indexed": true,
          "internalType": "address",
          "name": "owner",
          "type": "address"
        },
        {
          "indexed": false,
          "internalType": "string",
          "name": "tokenURI",
          "type": "string"
        }
      ],
      "name": "Minted",
      "type": "event"
    },
    {
      "anonymous": false,
      "inputs": [
        {
          "indexed": false,
          "internalType": "uint256",
          "name": "itemId",
          "type": "uint256"
        },
        {
          "indexed": false,
          "internalType": "uint256",
          "name": "tokenId",
          "type": "uint256"
        },
        {
          "indexed": false,
          "internalType": "uint256",
          "name": "price",
          "type": "uint256"
        },
        {
          "indexed": true,
          "internalType": "address",
          "name": "seller",
          "type": "address"
        }
      ],
      "name": "Offered",
      "type": "event"
    },
    {
      "anonymous": false,
      "inputs": [
        {
          "indexed": false,
          "internalType": "uint256",
          "name": "itemId",
          "type": "uint256"
        },
        {
          "indexed": false,
          "internalType": "uint256",
          "name": "tokenId",
          "type": "uint256"
        },
        {
          "indexed": true,
          "internalType": "address",
          "name": "seller",
          "type": "address"
        }
      ],
      "name": "RemovedFromSale",
      "type": "event"
    },
    {
      "anonymous": false,
      "inputs": [
        {
          "indexed": true,
          "internalType": "address",
          "name": "from",
          "type": "address"
        },
        {
          "indexed": true,
          "internalType": "address",
          "name": "to",
          "type": "address"
        },
        {
          "indexed": true,
          "internalType": "uint256",
          "name": "tokenId",
          "type": "uint256"
        }
      ],
      "name": "Transfer",
      "type": "event"
    },
    {
      "inputs": [
        {
          "internalType": "address",
          "name": "to",
          "type": "address"
        },
        {
          "internalType": "uint256",
          "name": "tokenId",
          "type": "uint256"
        }
      ],
      "name": "approve",
      "outputs": [],
      "stateMutability": "nonpayable",
      "type": "function"
    },
    {
      "inputs": [
        {
          "internalType": "address",
          "name": "owner",
          "type": "address"
        }
      ],
      "name": "balanceOf",
      "outputs": [
        {
          "internalType": "uint256",
          "name": "",
          "type": "uint256"
        }
      ],
      "stateMutability": "view",
      "type": "function"
    },
    {
      "inputs": [],
      "name": "feeAccount",
      "outputs": [
        {
          "internalType": "address payable",
          "name": "",
          "type": "address"
        }
      ],
      "stateMutability": "view",
      "type": "function"
    },
    {
      "inputs": [],
      "name": "feePercent",
      "outputs": [
        {
          "internalType": "uint256",
          "name": "",
          "type": "uint256"
        }
      ],
      "stateMutability": "view",
      "type": "function"
    },
    {
      "inputs": [
        {
          "internalType": "uint256",
          "name": "tokenId",
          "type": "uint256"
        }
      ],
      "name": "getApproved",
      "outputs": [
        {
          "internalType": "address",
          "name": "",
          "type": "address"
        }
      ],
      "stateMutability": "view",
      "type": "function"
    },
    {
      "inputs": [
        {
          "internalType": "uint256",
          "name": "_itemId",
          "type": "uint256"
        }
      ],
      "name": "getTotalPrice",
      "outputs": [
        {
          "internalType": "uint256",
          "name": "",
          "type": "uint256"
        }
      ],
      "stateMutability": "view",
      "type": "function"
    },
    {
      "inputs": [
        {
          "internalType": "address",
          "name": "owner",
          "type": "address"
        },
        {
          "internalType": "address",
          "name": "operator",
          "type": "address"
        }
      ],
      "name": "isApprovedForAll",
      "outputs": [
        {
          "internalType": "bool",
          "name": "",
          "type": "bool"
        }
      ],
      "stateMutability": "view",
      "type": "function"
    },
    {
      "inputs": [],
      "name": "itemCount",
      "outputs": [
        {
          "internalType": "uint256",
          "name": "",
          "type": "uint256"
        }
      ],
      "stateMutability": "view",
      "type": "function"
    },
    {
      "inputs": [
        {
          "internalType": "uint256",
          "name": "",
          "type": "uint256"
        }
      ],
      "name": "items",
      "outputs": [
        {
          "internalType": "uint256",
          "name": "itemId",
          "type": "uint256"
        },
        {
          "internalType": "uint256",
          "name": "tokenId",
          "type": "uint256"
        },
        {
          "internalType": "uint256",
          "name": "price",
          "type": "uint256"
        },
        {
          "internalType": "address payable",
          "name": "seller",
          "type": "address"
        },
        {
          "internalType": "bool",
          "name": "sold",
          "type": "bool"
        }
      ],
      "stateMutability": "view",
      "type": "function"
    },
    {
      "inputs": [
        {
          "internalType": "uint256",
          "name": "_tokenId",
          "type": "uint256"
        },
        {
          "internalType": "uint256",
          "name": "_price",
          "type": "uint256"
        }
      ],
      "name": "makeItem",
      "outputs": [],
      "stateMutability": "nonpayable",
      "type": "function"
    },
    {
      "inputs": [
        {
          "internalType": "string",
          "name": "_tokenURI",
          "type": "string"
        }
      ],
      "name": "mintNFT",
      "outputs": [
        {
          "internalType": "uint256",
          "name": "",
          "type": "uint256"
        }
      ],
      "stateMutability": "nonpayable",
      "type": "function"
    },
    {
      "inputs": [],
      "name": "name",
      "outputs": [
        {
          "internalType": "string",
          "name": "",
          "type": "string"
        }
      ],
      "stateMutability": "view",
      "type": "function"
    },
    {
      "inputs": [
        {
          "internalType": "uint256",
          "name": "tokenId",
          "type": "uint256"
        }
      ],
      "name": "ownerOf",
      "outputs": [
        {
          "internalType": "address",
          "name": "",
          "type": "address"
        }
      ],
      "stateMutability": "view",
      "type": "function"
    },
    {
      "inputs": [
        {
          "internalType": "uint256",
          "name": "_itemId",
          "type": "uint256"
        }
      ],
      "name": "purchaseItem",
      "outputs": [],
      "stateMutability": "payable",
      "type": "function"
    },
    {
      "inputs": [
        {
          "internalType": "uint256",
          "name": "_itemId",
          "type": "uint256"
        }
      ],
      "name": "removeFromSale",
      "outputs": [],
      "stateMutability": "nonpayable",
      "type": "function"
    },
    {
      "inputs": [
        {
          "internalType": "address",
          "name": "from",
          "type": "address"
        },
        {
          "internalType": "address",
          "name": "to",
          "type": "address"
        },
        {
          "internalType": "uint256",
          "name": "tokenId",
          "type": "uint256"
        }
      ],
      "name": "safeTransferFrom",
      "outputs": [],
      "stateMutability": "nonpayable",
      "type": "function"
    },
    {
      "inputs": [
        {
          "internalType": "address",
          "name": "from",
          "type": "address"
        },
        {
          "internalType": "address",
          "name": "to",
          "type": "address"
        },
        {
          "internalType": "uint256",
          "name": "tokenId",
          "type": "uint256"
        },
        {
          "internalType": "bytes",
          "name": "data",
          "type": "bytes"
        }
      ],
      "name": "safeTransferFrom",
      "outputs": [],
      "stateMutability": "nonpayable",
      "type": "function"
    },
    {
      "inputs": [
        {
          "internalType": "address",
          "name": "operator",
          "type": "address"
        },
        {
          "internalType": "bool",
          "name": "approved",
          "type": "bool"
        }
      ],
      "name": "setApprovalForAll",
      "outputs": [],
      "stateMutability": "nonpayable",
      "type": "function"
    },
    {
      "inputs": [
        {
          "internalType": "bytes4",
          "name": "interfaceId",
          "type": "bytes4"
        }
      ],
      "name": "supportsInterface",
      "outputs": [
        {
          "internalType": "bool",
          "name": "",
          "type": "bool"
        }
      ],
      "stateMutability": "view",
      "type": "function"
    },
    {
      "inputs": [],
      "name": "symbol",
      "outputs": [
        {
          "internalType": "string",
          "name": "",
          "type": "string"
        }
      ],
      "stateMutability": "view",
      "type": "function"
    },
    {
      "inputs": [],
      "name": "tokenCount",
      "outputs": [
        {
          "internalType": "uint256",
          "name": "",
          "type": "uint256"
        }
      ],
      "stateMutability": "view",
      "type": "function"
    },
    {
      "inputs": [
        {
          "internalType": "uint256",
          "name": "tokenId",
          "type": "uint256"
        }
      ],
      "name": "tokenURI",
      "outputs": [
        {
          "internalType": "string",
          "name": "",
          "type": "string"
        }
      ],
      "stateMutability": "view",
      "type": "function"
    },
    {
      "inputs": [
        {
          "internalType": "address",
          "name": "from",
          "type": "address"
        },
        {
          "internalType": "address",
          "name": "to",
          "type": "address"
        },
        {
          "internalType": "uint256",
          "name": "tokenId",
          "type": "uint256"
        }
      ],
      "name": "transferFrom",
      "outputs": [],
      "stateMutability": "nonpayable",
      "type": "function"
    }
  ],
  "bytecode": "0x60c060405234801561001057600080fd5b50604051613a73380380613a738339818101604052810190610032919061013d565b6040518060400160405280600981526020017f4e465442617a61617200000000000000000000000000000000000000000000008152506040518060400160405280600481526020017f4e4654420000000000000000000000000000000000000000000000000000000081525081600090816100ad91906103b0565b5080600190816100bd91906103b0565b5050503373ffffffffffffffffffffffffffffffffffffffff1660808173ffffffffffffffffffffffffffffffffffffffff16815250508060a0818152505050610482565b600080fd5b6000819050919050565b61011a81610107565b811461012557600080fd5b50565b60008151905061013781610111565b92915050565b60006020828403121561015357610152610102565b5b600061016184828501610128565b91505092915050565b600081519050919050565b7f4e487b7100000000000000000000000000000000000000000000000000000000600052604160045260246000fd5b7f4e487b7100000000000000000000000000000000000000000000000000000000600052602260045260246000fd5b600060028204905060018216806101eb57607f821691505b6020821081036101fe576101fd6101a4565b5b50919050565b60008190508160005260206000209050919050565b60006020601f8301049050919050565b600082821b905092915050565b6000600883026102667fffffffffffffffffffffffffffffffffffffffffffffffffffffffffffffffff82610229565b6102708683610229565b95508019841693508086168417925050509392505050565b6000819050919050565b60006102ad6102a86102a384610107565b610288565b610107565b9050919050565b6000819050919050565b6102c783610292565b6102db6102d3826102b4565b848454610236565b825550505050565b600090565b6102f06102e3565b6102fb8184846102be565b505050565b5b8181101561031f576103146000826102e8565b600181019050610301565b5050565b601f8211156103645761033581610204565b61033e84610219565b8101602085101561034d578190505b61036161035985610219565b830182610300565b50505b505050565b600082821c905092915050565b600061038760001984600802610369565b1980831691505092915050565b60006103a08383610376565b9150826002028217905092915050565b6103b98261016a565b67ffffffffffffffff8111156103d2576103d1610175565b5b6103dc82546101d3565b6103e7828285610323565b600060209050601f83116001811461041a5760008415610408578287015190505b6104128582610394565b86555061047a565b601f19841661042886610204565b60005b828110156104505784890151825560018201915060208501945060208101905061042b565b8683101561046d5784890151610469601f891682610376565b8355505b6001600288020188555050505b505050505050565b60805160a0516135be6104b560003960008181610cca0152610f3b015260008181610be6015261111301526135be6000f3fe6080604052600436106101405760003560e01c806370a08231116100b6578063bfb231d21161006f578063bfb231d21461045a578063c87b56dd1461049b578063ca7dd375146104d8578063d38ea5bf14610515578063e985e9c514610531578063fb37e8831461056e57610140565b806370a082311461034a5780637fd6f15c1461038757806395d89b41146103b25780639f181b5e146103dd578063a22cb46514610408578063b88d4fde1461043157610140565b80631361a3b6116101085780631361a3b61461023c57806323b872dd1461026557806342842e0e1461028e5780636352211e146102b757806365e17c9d146102f45780636bfb0d011461031f57610140565b806301ffc9a71461014557806306fdde0314610182578063081812fc146101ad578063095ea7b3146101ea5780630a50e3be14610213575b600080fd5b34801561015157600080fd5b5061016c600480360381019061016791906124af565b6105ab565b60405161017991906124f7565b60405180910390f35b34801561018e57600080fd5b5061019761060c565b6040516101a491906125a2565b60405180910390f35b3480156101b957600080fd5b506101d460048036038101906101cf91906125fa565b61069e565b6040516101e19190612668565b60405180910390f35b3480156101f657600080fd5b50610211600480360381019061020c91906126af565b6106ba565b005b34801561021f57600080fd5b5061023a600480360381019061023591906126ef565b6106d0565b005b34801561024857600080fd5b50610263600480360381019061025e91906125fa565b6108e5565b005b34801561027157600080fd5b5061028c6004803603810190610287919061272f565b610ab0565b005b34801561029a57600080fd5b506102b560048036038101906102b0919061272f565b610bb2565b005b3480156102c357600080fd5b506102de60048036038101906102d991906125fa565b610bd2565b6040516102eb9190612668565b60405180910390f35b34801561030057600080fd5b50610309610be4565b60405161031691906127a3565b60405180910390f35b34801561032b57600080fd5b50610334610c08565b60405161034191906127cd565b60405180910390f35b34801561035657600080fd5b50610371600480360381019061036c91906127e8565b610c0e565b60405161037e91906127cd565b60405180910390f35b34801561039357600080fd5b5061039c610cc8565b6040516103a991906127cd565b60405180910390f35b3480156103be57600080fd5b506103c7610cec565b6040516103d491906125a2565b60405180910390f35b3480156103e957600080fd5b506103f2610d7e565b6040516103ff91906127cd565b60405180910390f35b34801561041457600080fd5b5061042f600480360381019061042a9190612841565b610d84565b005b34801561043d57600080fd5b50610458600480360381019061045391906129b6565b610d9a565b005b34801561046657600080fd5b50610481600480360381019061047c91906125fa565b610dbf565b604051610492959493929190612a39565b60405180910390f35b3480156104a757600080fd5b506104c260048036038101906104bd91906125fa565b610e22565b6040516104cf91906125a2565b60405180910390f35b3480156104e457600080fd5b506104ff60048036038101906104fa91906125fa565b610f35565b60405161050c91906127cd565b60405180910390f35b61052f600480360381019061052a91906125fa565b610f98565b005b34801561053d57600080fd5b5061055860048036038101906105539190612a8c565b61124d565b60405161056591906124f7565b60405180910390f35b34801561057a57600080fd5b5061059560048036038101906105909190612b6d565b6112e1565b6040516105a291906127cd565b60405180910390f35b6000634906490660e01b7bffffffffffffffffffffffffffffffffffffffffffffffffffffffff1916827bffffffffffffffffffffffffffffffffffffffffffffffffffffffff191614806106055750610604826113b2565b5b9050919050565b60606000805461061b90612be5565b80601f016020809104026020016040519081016040528092919081815260200182805461064790612be5565b80156106945780601f1061066957610100808354040283529160200191610694565b820191906000526020600020905b81548152906001019060200180831161067757829003601f168201915b5050505050905090565b60006106a982611494565b506106b38261151c565b9050919050565b6106cc82826106c7611559565b611561565b5050565b3373ffffffffffffffffffffffffffffffffffffffff166106f083610bd2565b73ffffffffffffffffffffffffffffffffffffffff1614610746576040517f08c379a000000000000000000000000000000000000000000000000000000000815260040161073d90612c62565b60405180910390fd5b60008111610789576040517f08c379a000000000000000000000000000000000000000000000000000000000815260040161078090612cce565b60405180910390fd5b6008600081548092919061079c90612d1d565b9190505550600060085490506107b3333085611573565b6040518060a001604052808281526020018481526020018381526020013373ffffffffffffffffffffffffffffffffffffffff168152602001600015158152506009600083815260200190815260200160002060008201518160000155602082015181600101556040820151816002015560608201518160030160006101000a81548173ffffffffffffffffffffffffffffffffffffffff021916908373ffffffffffffffffffffffffffffffffffffffff16021790555060808201518160030160146101000a81548160ff0219169083151502179055509050503373ffffffffffffffffffffffffffffffffffffffff167fd846d2cfaaa23a2723be747ef18b5d16a1484d901d581da4843cc27638c862ad8285856040516108d893929190612d65565b60405180910390a2505050565b60006009600083815260200190815260200160002090503373ffffffffffffffffffffffffffffffffffffffff168160030160009054906101000a900473ffffffffffffffffffffffffffffffffffffffff1673ffffffffffffffffffffffffffffffffffffffff161461098e576040517f08c379a000000000000000000000000000000000000000000000000000000000815260040161098590612e0e565b60405180910390fd5b8060030160149054906101000a900460ff16156109e0576040517f08c379a00000000000000000000000000000000000000000000000000000000081526004016109d790612e7a565b60405180910390fd5b6109ef30338360010154611573565b60096000838152602001908152602001600020600080820160009055600182016000905560028201600090556003820160006101000a81549073ffffffffffffffffffffffffffffffffffffffff02191690556003820160146101000a81549060ff021916905550503373ffffffffffffffffffffffffffffffffffffffff167f4e2a4fd148279274aa054d52cb74764ff7c34801872890f250431f9093564401838360010154604051610aa4929190612e9a565b60405180910390a25050565b600073ffffffffffffffffffffffffffffffffffffffff168273ffffffffffffffffffffffffffffffffffffffff1603610b225760006040517f64a0ae92000000000000000000000000000000000000000000000000000000008152600401610b199190612668565b60405180910390fd5b6000610b368383610b31611559565b6116e0565b90508373ffffffffffffffffffffffffffffffffffffffff168173ffffffffffffffffffffffffffffffffffffffff1614610bac578382826040517f64283d7b000000000000000000000000000000000000000000000000000000008152600401610ba393929190612ec3565b60405180910390fd5b50505050565b610bcd83838360405180602001604052806000815250610d9a565b505050565b6000610bdd82611494565b9050919050565b7f000000000000000000000000000000000000000000000000000000000000000081565b60085481565b60008073ffffffffffffffffffffffffffffffffffffffff168273ffffffffffffffffffffffffffffffffffffffff1603610c815760006040517f89c62b64000000000000000000000000000000000000000000000000000000008152600401610c789190612668565b60405180910390fd5b600360008373ffffffffffffffffffffffffffffffffffffffff1673ffffffffffffffffffffffffffffffffffffffff168152602001908152602001600020549050919050565b7f000000000000000000000000000000000000000000000000000000000000000081565b606060018054610cfb90612be5565b80601f0160208091040260200160405190810160405280929190818152602001828054610d2790612be5565b8015610d745780601f10610d4957610100808354040283529160200191610d74565b820191906000526020600020905b815481529060010190602001808311610d5757829003601f168201915b5050505050905090565b60075481565b610d96610d8f611559565b83836118fa565b5050565b610da5848484610ab0565b610db9610db0611559565b85858585611a69565b50505050565b60096020528060005260406000206000915090508060000154908060010154908060020154908060030160009054906101000a900473ffffffffffffffffffffffffffffffffffffffff16908060030160149054906101000a900460ff16905085565b6060610e2d82611494565b506000600660008481526020019081526020016000208054610e4e90612be5565b80601f0160208091040260200160405190810160405280929190818152602001828054610e7a90612be5565b8015610ec75780601f10610e9c57610100808354040283529160200191610ec7565b820191906000526020600020905b815481529060010190602001808311610eaa57829003601f168201915b505050505090506000610ed8611c1a565b90506000815103610eed578192505050610f30565b600082511115610f22578082604051602001610f0a929190612f36565b60405160208183030381529060405292505050610f30565b610f2b84611c31565b925050505b919050565b600060647f00000000000000000000000000000000000000000000000000000000000000006064610f669190612f5a565b6009600085815260200190815260200160002060020154610f879190612f8e565b610f919190612fff565b9050919050565b60006009600083815260200190815260200160002090506000610fba83610f35565b9050600083118015610fce57506008548311155b61100d576040517f08c379a00000000000000000000000000000000000000000000000000000000081526004016110049061307c565b60405180910390fd5b80341015611050576040517f08c379a00000000000000000000000000000000000000000000000000000000081526004016110479061310e565b60405180910390fd5b8160030160149054906101000a900460ff16156110a2576040517f08c379a000000000000000000000000000000000000000000000000000000000815260040161109990612e7a565b60405180910390fd5b8160030160009054906101000a900473ffffffffffffffffffffffffffffffffffffffff1673ffffffffffffffffffffffffffffffffffffffff166108fc83600201549081150290604051600060405180830381858888f19350505050158015611110573d6000803e3d6000fd5b507f000000000000000000000000000000000000000000000000000000000000000073ffffffffffffffffffffffffffffffffffffffff166108fc83600201548361115b919061312e565b9081150290604051600060405180830381858888f19350505050158015611186573d6000803e3d6000fd5b5061119630338460010154611573565b60018260030160146101000a81548160ff0219169083151502179055503373ffffffffffffffffffffffffffffffffffffffff168260030160009054906101000a900473ffffffffffffffffffffffffffffffffffffffff1673ffffffffffffffffffffffffffffffffffffffff167fb085dc883b64c92d87743e5a1968be3b32761fc31aedacb744268b19a1da21db858560010154866002015460405161124093929190612d65565b60405180910390a3505050565b6000600560008473ffffffffffffffffffffffffffffffffffffffff1673ffffffffffffffffffffffffffffffffffffffff16815260200190815260200160002060008373ffffffffffffffffffffffffffffffffffffffff1673ffffffffffffffffffffffffffffffffffffffff16815260200190815260200160002060009054906101000a900460ff16905092915050565b600080825111611326576040517f08c379a000000000000000000000000000000000000000000000000000000000815260040161131d906131ae565b60405180910390fd5b6007600081548092919061133990612d1d565b91905055506000600754905061134f3382611c9a565b6113598184611cb8565b3373ffffffffffffffffffffffffffffffffffffffff167f3b8a974a6971dbe70c8718ec80406b2790d2aa5477b6a5bed3d94fa19e06d60d82856040516113a19291906131ce565b60405180910390a280915050919050565b60007f80ac58cd000000000000000000000000000000000000000000000000000000007bffffffffffffffffffffffffffffffffffffffffffffffffffffffff1916827bffffffffffffffffffffffffffffffffffffffffffffffffffffffff1916148061147d57507f5b5e139f000000000000000000000000000000000000000000000000000000007bffffffffffffffffffffffffffffffffffffffffffffffffffffffff1916827bffffffffffffffffffffffffffffffffffffffffffffffffffffffff1916145b8061148d575061148c82611d14565b5b9050919050565b6000806114a083611d7e565b9050600073ffffffffffffffffffffffffffffffffffffffff168173ffffffffffffffffffffffffffffffffffffffff160361151357826040517f7e27328900000000000000000000000000000000000000000000000000000000815260040161150a91906127cd565b60405180910390fd5b80915050919050565b60006004600083815260200190815260200160002060009054906101000a900473ffffffffffffffffffffffffffffffffffffffff169050919050565b600033905090565b61156e8383836001611dbb565b505050565b600073ffffffffffffffffffffffffffffffffffffffff168273ffffffffffffffffffffffffffffffffffffffff16036115e55760006040517f64a0ae920000000000000000000000000000000000000000000000000000000081526004016115dc9190612668565b60405180910390fd5b60006115f3838360006116e0565b9050600073ffffffffffffffffffffffffffffffffffffffff168173ffffffffffffffffffffffffffffffffffffffff160361166657816040517f7e27328900000000000000000000000000000000000000000000000000000000815260040161165d91906127cd565b60405180910390fd5b8373ffffffffffffffffffffffffffffffffffffffff168173ffffffffffffffffffffffffffffffffffffffff16146116da578382826040517f64283d7b0000000000000000000000000000000000000000000000000000000081526004016116d193929190612ec3565b60405180910390fd5b50505050565b6000806116ec84611d7e565b9050600073ffffffffffffffffffffffffffffffffffffffff168373ffffffffffffffffffffffffffffffffffffffff161461172e5761172d818486611f80565b5b600073ffffffffffffffffffffffffffffffffffffffff168173ffffffffffffffffffffffffffffffffffffffff16146117bf57611770600085600080611dbb565b6001600360008373ffffffffffffffffffffffffffffffffffffffff1673ffffffffffffffffffffffffffffffffffffffff168152602001908152602001600020600082825403925050819055505b600073ffffffffffffffffffffffffffffffffffffffff168573ffffffffffffffffffffffffffffffffffffffff1614611842576001600360008773ffffffffffffffffffffffffffffffffffffffff1673ffffffffffffffffffffffffffffffffffffffff168152602001908152602001600020600082825401925050819055505b846002600086815260200190815260200160002060006101000a81548173ffffffffffffffffffffffffffffffffffffffff021916908373ffffffffffffffffffffffffffffffffffffffff160217905550838573ffffffffffffffffffffffffffffffffffffffff168273ffffffffffffffffffffffffffffffffffffffff167fddf252ad1be2c89b69c2b068fc378daa952ba7f163c4a11628f55a4df523b3ef60405160405180910390a4809150509392505050565b600073ffffffffffffffffffffffffffffffffffffffff168273ffffffffffffffffffffffffffffffffffffffff160361196b57816040517f5b08ba180000000000000000000000000000000000000000000000000000000081526004016119629190612668565b60405180910390fd5b80600560008573ffffffffffffffffffffffffffffffffffffffff1673ffffffffffffffffffffffffffffffffffffffff16815260200190815260200160002060008473ffffffffffffffffffffffffffffffffffffffff1673ffffffffffffffffffffffffffffffffffffffff16815260200190815260200160002060006101000a81548160ff0219169083151502179055508173ffffffffffffffffffffffffffffffffffffffff168373ffffffffffffffffffffffffffffffffffffffff167f17307eab39ab6107e8899845ad3d59bd9653f200f220920489ca2b5937696c3183604051611a5c91906124f7565b60405180910390a3505050565b60008373ffffffffffffffffffffffffffffffffffffffff163b1115611c13578273ffffffffffffffffffffffffffffffffffffffff1663150b7a02868685856040518563ffffffff1660e01b8152600401611ac89493929190613253565b6020604051808303816000875af1925050508015611b0457506040513d601f19601f82011682018060405250810190611b0191906132b4565b60015b611b88573d8060008114611b34576040519150601f19603f3d011682016040523d82523d6000602084013e611b39565b606091505b506000815103611b8057836040517f64a0ae92000000000000000000000000000000000000000000000000000000008152600401611b779190612668565b60405180910390fd5b805181602001fd5b63150b7a0260e01b7bffffffffffffffffffffffffffffffffffffffffffffffffffffffff1916817bffffffffffffffffffffffffffffffffffffffffffffffffffffffff191614611c1157836040517f64a0ae92000000000000000000000000000000000000000000000000000000008152600401611c089190612668565b60405180910390fd5b505b5050505050565b606060405180602001604052806000815250905090565b6060611c3c82611494565b506000611c47611c1a565b90506000815111611c675760405180602001604052806000815250611c92565b80611c7184612044565b604051602001611c82929190612f36565b6040516020818303038152906040525b915050919050565b611cb4828260405180602001604052806000815250612112565b5050565b80600660008481526020019081526020016000209081611cd8919061348d565b507ff8e1a15aba9398e019f0b49df1a4fde98ee17ae345cb5f6b5e2c27f5033e8ce782604051611d0891906127cd565b60405180910390a15050565b60007f01ffc9a7000000000000000000000000000000000000000000000000000000007bffffffffffffffffffffffffffffffffffffffffffffffffffffffff1916827bffffffffffffffffffffffffffffffffffffffffffffffffffffffff1916149050919050565b60006002600083815260200190815260200160002060009054906101000a900473ffffffffffffffffffffffffffffffffffffffff169050919050565b8080611df45750600073ffffffffffffffffffffffffffffffffffffffff168273ffffffffffffffffffffffffffffffffffffffff1614155b15611f28576000611e0484611494565b9050600073ffffffffffffffffffffffffffffffffffffffff168373ffffffffffffffffffffffffffffffffffffffff1614158015611e6f57508273ffffffffffffffffffffffffffffffffffffffff168173ffffffffffffffffffffffffffffffffffffffff1614155b8015611e825750611e80818461124d565b155b15611ec457826040517fa9fbf51f000000000000000000000000000000000000000000000000000000008152600401611ebb9190612668565b60405180910390fd5b8115611f2657838573ffffffffffffffffffffffffffffffffffffffff168273ffffffffffffffffffffffffffffffffffffffff167f8c5be1e5ebec7d5bd14f71427d1e84f3dd0314c0f7b2291e5b200ac8c7c3b92560405160405180910390a45b505b836004600085815260200190815260200160002060006101000a81548173ffffffffffffffffffffffffffffffffffffffff021916908373ffffffffffffffffffffffffffffffffffffffff16021790555050505050565b611f8b838383612136565b61203f57600073ffffffffffffffffffffffffffffffffffffffff168373ffffffffffffffffffffffffffffffffffffffff160361200057806040517f7e273289000000000000000000000000000000000000000000000000000000008152600401611ff791906127cd565b60405180910390fd5b81816040517f177e802f00000000000000000000000000000000000000000000000000000000815260040161203692919061355f565b60405180910390fd5b505050565b606060006001612053846121f7565b01905060008167ffffffffffffffff8111156120725761207161288b565b5b6040519080825280601f01601f1916602001820160405280156120a45781602001600182028036833780820191505090505b509050600082602001820190505b600115612107578080600190039150507f3031323334353637383961626364656600000000000000000000000000000000600a86061a8153600a85816120fb576120fa612fd0565b5b049450600085036120b2575b819350505050919050565b61211c838361234a565b612131612127611559565b6000858585611a69565b505050565b60008073ffffffffffffffffffffffffffffffffffffffff168373ffffffffffffffffffffffffffffffffffffffff16141580156121ee57508273ffffffffffffffffffffffffffffffffffffffff168473ffffffffffffffffffffffffffffffffffffffff1614806121af57506121ae848461124d565b5b806121ed57508273ffffffffffffffffffffffffffffffffffffffff166121d58361151c565b73ffffffffffffffffffffffffffffffffffffffff16145b5b90509392505050565b600080600090507a184f03e93ff9f4daa797ed6e38ed64bf6a1f0100000000000000008310612255577a184f03e93ff9f4daa797ed6e38ed64bf6a1f010000000000000000838161224b5761224a612fd0565b5b0492506040810190505b6d04ee2d6d415b85acef81000000008310612292576d04ee2d6d415b85acef8100000000838161228857612287612fd0565b5b0492506020810190505b662386f26fc1000083106122c157662386f26fc1000083816122b7576122b6612fd0565b5b0492506010810190505b6305f5e10083106122ea576305f5e10083816122e0576122df612fd0565b5b0492506008810190505b612710831061230f57612710838161230557612304612fd0565b5b0492506004810190505b60648310612332576064838161232857612327612fd0565b5b0492506002810190505b600a8310612341576001810190505b80915050919050565b600073ffffffffffffffffffffffffffffffffffffffff168273ffffffffffffffffffffffffffffffffffffffff16036123bc5760006040517f64a0ae920000000000000000000000000000000000000000000000000000000081526004016123b39190612668565b60405180910390fd5b60006123ca838360006116e0565b9050600073ffffffffffffffffffffffffffffffffffffffff168173ffffffffffffffffffffffffffffffffffffffff161461243e5760006040517f73c6ac6e0000000000000000000000000000000000000000000000000000000081526004016124359190612668565b60405180910390fd5b505050565b6000604051905090565b600080fd5b600080fd5b60007fffffffff0000000000000000000000000000000000000000000000000000000082169050919050565b61248c81612457565b811461249757600080fd5b50565b6000813590506124a981612483565b92915050565b6000602082840312156124c5576124c461244d565b5b60006124d38482850161249a565b91505092915050565b60008115159050919050565b6124f1816124dc565b82525050565b600060208201905061250c60008301846124e8565b92915050565b600081519050919050565b600082825260208201905092915050565b60005b8381101561254c578082015181840152602081019050612531565b60008484015250505050565b6000601f19601f8301169050919050565b600061257482612512565b61257e818561251d565b935061258e81856020860161252e565b61259781612558565b840191505092915050565b600060208201905081810360008301526125bc8184612569565b905092915050565b6000819050919050565b6125d7816125c4565b81146125e257600080fd5b50565b6000813590506125f4816125ce565b92915050565b6000602082840312156126105761260f61244d565b5b600061261e848285016125e5565b91505092915050565b600073ffffffffffffffffffffffffffffffffffffffff82169050919050565b600061265282612627565b9050919050565b61266281612647565b82525050565b600060208201905061267d6000830184612659565b92915050565b61268c81612647565b811461269757600080fd5b50565b6000813590506126a981612683565b92915050565b600080604083850312156126c6576126c561244d565b5b60006126d48582860161269a565b92505060206126e5858286016125e5565b9150509250929050565b600080604083850312156127065761270561244d565b5b6000612714858286016125e5565b9250506020612725858286016125e5565b9150509250929050565b6000806000606084860312156127485761274761244d565b5b60006127568682870161269a565b93505060206127678682870161269a565b9250506040612778868287016125e5565b9150509250925092565b600061278d82612627565b9050919050565b61279d81612782565b82525050565b60006020820190506127b86000830184612794565b92915050565b6127c7816125c4565b82525050565b60006020820190506127e260008301846127be565b92915050565b6000602082840312156127fe576127fd61244d565b5b600061280c8482850161269a565b91505092915050565b61281e816124dc565b811461282957600080fd5b50565b60008135905061283b81612815565b92915050565b600080604083850312156128585761285761244d565b5b60006128668582860161269a565b92505060206128778582860161282c565b9150509250929050565b600080fd5b600080fd5b7f4e487b7100000000000000000000000000000000000000000000000000000000600052604160045260246000fd5b6128c382612558565b810181811067ffffffffffffffff821117156128e2576128e161288b565b5b80604052505050565b60006128f5612443565b905061290182826128ba565b919050565b600067ffffffffffffffff8211156129215761292061288b565b5b61292a82612558565b9050602081019050919050565b82818337600083830152505050565b600061295961295484612906565b6128eb565b90508281526020810184848401111561297557612974612886565b5b612980848285612937565b509392505050565b600082601f83011261299d5761299c612881565b5b81356129ad848260208601612946565b91505092915050565b600080600080608085870312156129d0576129cf61244d565b5b60006129de8782880161269a565b94505060206129ef8782880161269a565b9350506040612a00878288016125e5565b925050606085013567ffffffffffffffff811115612a2157612a20612452565b5b612a2d87828801612988565b91505092959194509250565b600060a082019050612a4e60008301886127be565b612a5b60208301876127be565b612a6860408301866127be565b612a756060830185612794565b612a8260808301846124e8565b9695505050505050565b60008060408385031215612aa357612aa261244d565b5b6000612ab18582860161269a565b9250506020612ac28582860161269a565b9150509250929050565b600067ffffffffffffffff821115612ae757612ae661288b565b5b612af082612558565b9050602081019050919050565b6000612b10612b0b84612acc565b6128eb565b905082815260208101848484011115612b2c57612b2b612886565b5b612b37848285612937565b509392505050565b600082601f830112612b5457612b53612881565b5b8135612b64848260208601612afd565b91505092915050565b600060208284031215612b8357612b8261244d565b5b600082013567ffffffffffffffff811115612ba157612ba0612452565b5b612bad84828501612b3f565b91505092915050565b7f4e487b7100000000000000000000000000000000000000000000000000000000600052602260045260246000fd5b60006002820490506001821680612bfd57607f821691505b602082108103612c1057612c0f612bb6565b5b50919050565b7f596f75206d757374206f776e20746865204e465420746f206c69737420697400600082015250565b6000612c4c601f8361251d565b9150612c5782612c16565b602082019050919050565b60006020820190508181036000830152612c7b81612c3f565b9050919050565b7f5072696365206d7573742062652067726561746572207468616e207a65726f00600082015250565b6000612cb8601f8361251d565b9150612cc382612c82565b602082019050919050565b60006020820190508181036000830152612ce781612cab565b9050919050565b7f4e487b7100000000000000000000000000000000000000000000000000000000600052601160045260246000fd5b6000612d28826125c4565b91507fffffffffffffffffffffffffffffffffffffffffffffffffffffffffffffffff8203612d5a57612d59612cee565b5b600182019050919050565b6000606082019050612d7a60008301866127be565b612d8760208301856127be565b612d9460408301846127be565b949350505050565b7f4f6e6c79207468652073656c6c65722063616e2072656d6f766520746865206960008201527f74656d2066726f6d2073616c6500000000000000000000000000000000000000602082015250565b6000612df8602d8361251d565b9150612e0382612d9c565b604082019050919050565b60006020820190508181036000830152612e2781612deb565b9050919050565b7f4974656d20616c726561647920736f6c64000000000000000000000000000000600082015250565b6000612e6460118361251d565b9150612e6f82612e2e565b602082019050919050565b60006020820190508181036000830152612e9381612e57565b9050919050565b6000604082019050612eaf60008301856127be565b612ebc60208301846127be565b9392505050565b6000606082019050612ed86000830186612659565b612ee560208301856127be565b612ef26040830184612659565b949350505050565b600081905092915050565b6000612f1082612512565b612f1a8185612efa565b9350612f2a81856020860161252e565b80840191505092915050565b6000612f428285612f05565b9150612f4e8284612f05565b91508190509392505050565b6000612f65826125c4565b9150612f70836125c4565b9250828201905080821115612f8857612f87612cee565b5b92915050565b6000612f99826125c4565b9150612fa4836125c4565b9250828202612fb2816125c4565b91508282048414831517612fc957612fc8612cee565b5b5092915050565b7f4e487b7100000000000000000000000000000000000000000000000000000000600052601260045260246000fd5b600061300a826125c4565b9150613015836125c4565b92508261302557613024612fd0565b5b828204905092915050565b7f4974656d20646f6573206e6f7420657869737400000000000000000000000000600082015250565b600061306660138361251d565b915061307182613030565b602082019050919050565b6000602082019050818103600083015261309581613059565b9050919050565b7f4e6f7420656e6f75676820657468657220746f20636f766572206974656d207060008201527f7269636520616e64206665657300000000000000000000000000000000000000602082015250565b60006130f8602d8361251d565b91506131038261309c565b604082019050919050565b60006020820190508181036000830152613127816130eb565b9050919050565b6000613139826125c4565b9150613144836125c4565b925082820390508181111561315c5761315b612cee565b5b92915050565b7f546f6b656e205552492072657175697265640000000000000000000000000000600082015250565b600061319860128361251d565b91506131a382613162565b602082019050919050565b600060208201905081810360008301526131c78161318b565b9050919050565b60006040820190506131e360008301856127be565b81810360208301526131f58184612569565b90509392505050565b600081519050919050565b600082825260208201905092915050565b6000613225826131fe565b61322f8185613209565b935061323f81856020860161252e565b61324881612558565b840191505092915050565b60006080820190506132686000830187612659565b6132756020830186612659565b61328260408301856127be565b8181036060830152613294818461321a565b905095945050505050565b6000815190506132ae81612483565b92915050565b6000602082840312156132ca576132c961244d565b5b60006132d88482850161329f565b91505092915050565b60008190508160005260206000209050919050565b60006020601f8301049050919050565b600082821b905092915050565b6000600883026133437fffffffffffffffffffffffffffffffffffffffffffffffffffffffffffffffff82613306565b61334d8683613306565b95508019841693508086168417925050509392505050565b6000819050919050565b600061338a613385613380846125c4565b613365565b6125c4565b9050919050565b6000819050919050565b6133a48361336f565b6133b86133b082613391565b848454613313565b825550505050565b600090565b6133cd6133c0565b6133d881848461339b565b505050565b5b818110156133fc576133f16000826133c5565b6001810190506133de565b5050565b601f82111561344157613412816132e1565b61341b846132f6565b8101602085101561342a578190505b61343e613436856132f6565b8301826133dd565b50505b505050565b600082821c905092915050565b600061346460001984600802613446565b1980831691505092915050565b600061347d8383613453565b9150826002028217905092915050565b61349682612512565b67ffffffffffffffff8111156134af576134ae61288b565b5b6134b98254612be5565b6134c4828285613400565b600060209050601f8311600181146134f757600084156134e5578287015190505b6134ef8582613471565b865550613557565b601f198416613505866132e1565b60005b8281101561352d57848901518255600182019150602085019450602081019050613508565b8683101561354a5784890151613546601f891682613453565b8355505b6001600288020188555050505b505050505050565b60006040820190506135746000830185612659565b61358160208301846127be565b939250505056fea2646970667358221220beca3b0f50d3d7956fc7c6885913ce8fc7182ba0ce3f7922ebf2bf7c5b3aef8a64736f6c634300081b0033",
  "linkReferences": {},
  "deployedLinkReferences": {}
}